{
  "abi": [
    {
      "inputs": [
        {
          "internalType": "address",
          "name": "_feeToSetter",
          "type": "address"
        }
      ],
      "payable": false,
      "stateMutability": "nonpayable",
      "type": "constructor"
    },
    {
      "anonymous": false,
      "inputs": [
        {
          "indexed": true,
          "internalType": "address",
          "name": "token0",
          "type": "address"
        },
        {
          "indexed": true,
          "internalType": "address",
          "name": "token1",
          "type": "address"
        },
        {
          "indexed": false,
          "internalType": "address",
          "name": "pair",
          "type": "address"
        },
        {
          "indexed": false,
          "internalType": "uint256",
          "name": "",
          "type": "uint256"
        }
      ],
      "name": "PairCreated",
      "type": "event"
    },
    {
      "constant": true,
      "inputs": [],
      "name": "INIT_CODE_PAIR_HASH",
      "outputs": [
        {
          "internalType": "bytes32",
          "name": "",
          "type": "bytes32"
        }
      ],
      "payable": false,
      "stateMutability": "view",
      "type": "function"
    },
    {
      "constant": true,
      "inputs": [
        {
          "internalType": "uint256",
          "name": "",
          "type": "uint256"
        }
      ],
      "name": "allPairs",
      "outputs": [
        {
          "internalType": "address",
          "name": "",
          "type": "address"
        }
      ],
      "payable": false,
      "stateMutability": "view",
      "type": "function"
    },
    {
      "constant": true,
      "inputs": [],
      "name": "allPairsLength",
      "outputs": [
        {
          "internalType": "uint256",
          "name": "",
          "type": "uint256"
        }
      ],
      "payable": false,
      "stateMutability": "view",
      "type": "function"
    },
    {
      "constant": false,
      "inputs": [
        {
          "internalType": "address",
          "name": "tokenA",
          "type": "address"
        },
        {
          "internalType": "address",
          "name": "tokenB",
          "type": "address"
        }
      ],
      "name": "createPair",
      "outputs": [
        {
          "internalType": "address",
          "name": "pair",
          "type": "address"
        }
      ],
      "payable": false,
      "stateMutability": "nonpayable",
      "type": "function"
    },
    {
      "constant": true,
      "inputs": [],
      "name": "feeTo",
      "outputs": [
        {
          "internalType": "address",
          "name": "",
          "type": "address"
        }
      ],
      "payable": false,
      "stateMutability": "view",
      "type": "function"
    },
    {
      "constant": true,
      "inputs": [],
      "name": "feeToSetter",
      "outputs": [
        {
          "internalType": "address",
          "name": "",
          "type": "address"
        }
      ],
      "payable": false,
      "stateMutability": "view",
      "type": "function"
    },
    {
      "constant": true,
      "inputs": [
        {
          "internalType": "address",
          "name": "",
          "type": "address"
        },
        {
          "internalType": "address",
          "name": "",
          "type": "address"
        }
      ],
      "name": "getPair",
      "outputs": [
        {
          "internalType": "address",
          "name": "",
          "type": "address"
        }
      ],
      "payable": false,
      "stateMutability": "view",
      "type": "function"
    },
    {
      "constant": true,
      "inputs": [
        {
          "internalType": "address",
          "name": "tokenA",
          "type": "address"
        },
        {
          "internalType": "address",
          "name": "tokenB",
          "type": "address"
        }
      ],
      "name": "getaPair",
      "outputs": [
        {
          "internalType": "address",
          "name": "",
          "type": "address"
        }
      ],
      "payable": false,
      "stateMutability": "view",
      "type": "function"
    },
    {
      "constant": false,
      "inputs": [
        {
          "internalType": "address",
          "name": "_feeTo",
          "type": "address"
        }
      ],
      "name": "setFeeTo",
      "outputs": [],
      "payable": false,
      "stateMutability": "nonpayable",
      "type": "function"
    },
    {
      "constant": false,
      "inputs": [
        {
          "internalType": "address",
          "name": "_feeToSetter",
          "type": "address"
        }
      ],
      "name": "setFeeToSetter",
      "outputs": [],
      "payable": false,
      "stateMutability": "nonpayable",
      "type": "function"
    }
  ],
  "bytecode": {
    "object": "0x6080604052600160005534801561001557600080fd5b50604051612b30380380612b308339818101604052602081101561003857600080fd5b5051600280546001600160a01b0319166001600160a01b03909216919091179055612ac8806100686000396000f3fe608060405234801561001057600080fd5b506004361061009e5760003560e01c806359d8518f1161006657806359d8518f1461010e578063a2e74af61461013c578063c9c6539614610164578063e6a4390514610192578063f46901ed146101c05761009e565b8063017e7e58146100a3578063094b7415146100c75780631e3dd18b146100cf578063574f2ba3146100ec5780635855a25a14610106575b600080fd5b6100ab6101e6565b604080516001600160a01b039092168252519081900360200190f35b6100ab6101f5565b6100ab600480360360208110156100e557600080fd5b5035610204565b6100f461022b565b60408051918252519081900360200190f35b6100f4610231565b6100ab6004803603604081101561012457600080fd5b506001600160a01b03813581169160200135166102c4565b6101626004803603602081101561015257600080fd5b50356001600160a01b031661031c565b005b6100ab6004803603604081101561017a57600080fd5b506001600160a01b0381358116916020013516610390565b6100ab600480360360408110156101a857600080fd5b506001600160a01b03813581169160200135166106b3565b610162600480360360208110156101d657600080fd5b50356001600160a01b03166106d9565b6001546001600160a01b031681565b6002546001600160a01b031681565b6004818154811061021157fe5b6000918252602090912001546001600160a01b0316905081565b60045490565b6040516102406020820161074d565b6020820181038252601f19601f820116604052506040516020018082805190602001908083835b602083106102865780518252601f199092019160209182019101610267565b6001836020036101000a0380198251168184511680821785525050505050509050019150506040516020818303038152906040528051906020012081565b6000806000836001600160a01b0316856001600160a01b0316106102e95783856102ec565b84845b6001600160a01b039182166000908152600360209081526040808320938516835292905220541695945050505050565b6002546001600160a01b0316331461036e576040805162461bcd60e51b815260206004820152601060248201526f25bbb4b5a29d102327a92124a22222a760811b604482015290519081900360640190fd5b600280546001600160a01b0319166001600160a01b0392909216919091179055565b6000816001600160a01b0316836001600160a01b031614156103f9576040805162461bcd60e51b815260206004820152601a60248201527f4b77696b453a204944454e544943414c5f414444524553534553000000000000604482015290519081900360640190fd5b600080836001600160a01b0316856001600160a01b03161061041c57838561041f565b84845b90925090506001600160a01b038216610475576040805162461bcd60e51b81526020600482015260136024820152724b77696b453a205a45524f5f4144445245535360681b604482015290519081900360640190fd5b6001600160a01b038281166000908152600360209081526040808320858516845290915290205416156104e4576040805162461bcd60e51b81526020600482015260126024820152714b77696b453a20504149525f45584953545360701b604482015290519081900360640190fd5b6060604051806020016104f69061074d565b6020820181038252601f19601f8201166040525090506000838360405160200180836001600160a01b03166001600160a01b031660601b8152601401826001600160a01b03166001600160a01b031660601b815260140192505050604051602081830303815290604052805190602001209050808251602084016000f56040805163485cc95560e01b81526001600160a01b038781166004830152868116602483015291519297509087169163485cc9559160448082019260009290919082900301818387803b1580156105c957600080fd5b505af11580156105dd573d6000803e3d6000fd5b505050506001600160a01b0384811660008181526003602081815260408084208987168086529083528185208054978d166001600160a01b031998891681179091559383528185208686528352818520805488168517905560048054600181018255958190527f8a35acfbc15ff81a39ae7d344fd709f28e8600b4aa8c65c6b64bfe7fe36bd19b90950180549097168417909655925483519283529082015281517f0d3648bd0f6ba80134a33ba9275ac585d9d315f0ad8355cddefde31afa28d0e9929181900390910190a35050505092915050565b60036020908152600092835260408084209091529082529020546001600160a01b031681565b6002546001600160a01b0316331461072b576040805162461bcd60e51b815260206004820152601060248201526f25bbb4b5a29d102327a92124a22222a760811b604482015290519081900360640190fd5b600180546001600160a01b0319166001600160a01b0392909216919091179055565b6123398061075b8339019056fe60806040526001600c5534801561001557600080fd5b5060405146908060526122e7823960408051918290036052018220828201825260098352684b77696b45204c507360b81b6020938401528151808301835260018152603160f81b908401528151808401919091527fcaa0cbafa16f24fcc46f0e92c75224878812c28ce481facef6b3a554afe30c57818301527fc89efdaa54c0f20c7adf612882df0950f5a951637e0307cdcb4c672f298b8bc6606082015260808101949094523060a0808601919091528151808603909101815260c09094019052825192019190912060035550600580546001600160a01b031916331790556121e3806101046000396000f3fe608060405234801561001057600080fd5b50600436106101a95760003560e01c80636a627842116100f9578063ba9a7a5611610097578063d21220a711610071578063d21220a714610534578063d505accf1461053c578063dd62ed3e1461058d578063fff6cae9146105bb576101a9565b8063ba9a7a56146104fe578063bc25cf7714610506578063c45a01551461052c576101a9565b80637ecebe00116100d35780637ecebe001461046557806389afcb441461048b57806395d89b41146104ca578063a9059cbb146104d2576101a9565b80636a6278421461041157806370a08231146104375780637464fc3d1461045d576101a9565b806323b872dd116101665780633644e515116101405780633644e515146103cb578063485cc955146103d35780635909c0d5146104015780635a3d549314610409576101a9565b806323b872dd1461036f57806330adf81f146103a5578063313ce567146103ad576101a9565b8063022c0d9f146101ae57806306fdde031461023c5780630902f1ac146102b9578063095ea7b3146102f15780630dfe16811461033157806318160ddd14610355575b600080fd5b61023a600480360360808110156101c457600080fd5b8135916020810135916001600160a01b0360408301351691908101906080810160608201356401000000008111156101fb57600080fd5b82018360208201111561020d57600080fd5b8035906020019184600183028401116401000000008311171561022f57600080fd5b5090925090506105c3565b005b610244610abf565b6040805160208082528351818301528351919283929083019185019080838360005b8381101561027e578181015183820152602001610266565b50505050905090810190601f1680156102ab5780820380516001836020036101000a031916815260200191505b509250505060405180910390f35b6102c1610ae4565b604080516001600160701b03948516815292909316602083015263ffffffff168183015290519081900360600190f35b61031d6004803603604081101561030757600080fd5b506001600160a01b038135169060200135610b0e565b604080519115158252519081900360200190f35b610339610b25565b604080516001600160a01b039092168252519081900360200190f35b61035d610b34565b60408051918252519081900360200190f35b61031d6004803603606081101561038557600080fd5b506001600160a01b03813581169160208101359091169060400135610b3a565b61035d610bd4565b6103b5610bf8565b6040805160ff9092168252519081900360200190f35b61035d610bfd565b61023a600480360360408110156103e957600080fd5b506001600160a01b0381358116916020013516610c03565b61035d610c83565b61035d610c89565b61035d6004803603602081101561042757600080fd5b50356001600160a01b0316610c8f565b61035d6004803603602081101561044d57600080fd5b50356001600160a01b0316610f8b565b61035d610f9d565b61035d6004803603602081101561047b57600080fd5b50356001600160a01b0316610fa3565b6104b1600480360360208110156104a157600080fd5b50356001600160a01b0316610fb5565b6040805192835260208301919091528051918290030190f35b610244611357565b61031d600480360360408110156104e857600080fd5b506001600160a01b03813516906020013561137a565b61035d611387565b61023a6004803603602081101561051c57600080fd5b50356001600160a01b031661138d565b6103396114f4565b610339611503565b61023a600480360360e081101561055257600080fd5b506001600160a01b03813581169160208101359091169060408101359060608101359060ff6080820135169060a08101359060c00135611512565b61035d600480360360408110156105a357600080fd5b506001600160a01b0381358116916020013516611710565b61023a61172d565b600c5460011461060a576040805162461bcd60e51b815260206004820152600d60248201526c12ddda5ad14e881313d0d2d151609a1b604482015290519081900360640190fd5b6000600c558415158061061d5750600084115b6106585760405162461bcd60e51b81526004018080602001828103825260218152602001806121466021913960400191505060405180910390fd5b600080610663610ae4565b5091509150816001600160701b0316871080156106885750806001600160701b031686105b6106d9576040805162461bcd60e51b815260206004820152601d60248201527f4b77696b453a20494e53554646494349454e545f4c4951554944495459000000604482015290519081900360640190fd5b60065460075460009182916001600160a01b039182169190811690891682148015906107175750806001600160a01b0316896001600160a01b031614155b61075c576040805162461bcd60e51b81526020600482015260116024820152704b77696b453a20494e56414c49445f544f60781b604482015290519081900360640190fd5b8a1561076d5761076d828a8d61188b565b891561077e5761077e818a8c61188b565b861561083957886001600160a01b0316639dbe559a338d8d8c8c6040518663ffffffff1660e01b815260040180866001600160a01b03166001600160a01b03168152602001858152602001848152602001806020018281038252848482818152602001925080828437600081840152601f19601f8201169050808301925050509650505050505050600060405180830381600087803b15801561082057600080fd5b505af1158015610834573d6000803e3d6000fd5b505050505b604080516370a0823160e01b815230600482015290516001600160a01b038416916370a08231916024808301926020929190829003018186803b15801561087f57600080fd5b505afa158015610893573d6000803e3d6000fd5b505050506040513d60208110156108a957600080fd5b5051604080516370a0823160e01b815230600482015290519195506001600160a01b038316916370a0823191602480820192602092909190829003018186803b1580156108f557600080fd5b505afa158015610909573d6000803e3d6000fd5b505050506040513d602081101561091f57600080fd5b5051925060009150506001600160701b0385168a90038311610942576000610951565b89856001600160701b03160383035b9050600089856001600160701b031603831161096e57600061097d565b89856001600160701b03160383035b905060006109b361099584601963ffffffff611a1e16565b6109a78761271063ffffffff611a1e16565b9063ffffffff611a8116565b905060006109cb61099584601963ffffffff611a1e16565b90506109fd6305f5e1006109f16001600160701b038b8116908b1663ffffffff611a1e16565b9063ffffffff611a1e16565b610a0d838363ffffffff611a1e16565b1015610a4b576040805162461bcd60e51b81526020600482015260086024820152674b77696b453a204b60c01b604482015290519081900360640190fd5b5050610a5984848888611ad1565b60408051838152602081018390528082018d9052606081018c905290516001600160a01b038b169133917fd78ad95fa46c994b6551d0da85fc275fe613ce37657fb8d5e3d130840159d8229181900360800190a350506001600c55505050505050505050565b604051806040016040528060098152602001684b77696b45204c507360b81b81525081565b6008546001600160701b0380821692600160701b830490911691600160e01b900463ffffffff1690565b6000610b1b338484611c92565b5060015b92915050565b6006546001600160a01b031681565b60005481565b6001600160a01b038316600090815260026020908152604080832033845290915281205460001914610bbf576001600160a01b0384166000908152600260209081526040808320338452909152902054610b9a908363ffffffff611a8116565b6001600160a01b03851660009081526002602090815260408083203384529091529020555b610bca848484611cf4565b5060019392505050565b7f6e71edae12b1b97f4d1f60370fef10105fa2faae0126114a169c64845d6126c981565b601281565b60035481565b6005546001600160a01b03163314610c55576040805162461bcd60e51b815260206004820152601060248201526f25bbb4b5a29d102327a92124a22222a760811b604482015290519081900360640190fd5b600680546001600160a01b039384166001600160a01b03199182161790915560078054929093169116179055565b60095481565b600a5481565b6000600c54600114610cd8576040805162461bcd60e51b815260206004820152600d60248201526c12ddda5ad14e881313d0d2d151609a1b604482015290519081900360640190fd5b6000600c81905580610ce8610ae4565b50600654604080516370a0823160e01b815230600482015290519395509193506000926001600160a01b03909116916370a08231916024808301926020929190829003018186803b158015610d3c57600080fd5b505afa158015610d50573d6000803e3d6000fd5b505050506040513d6020811015610d6657600080fd5b5051600754604080516370a0823160e01b815230600482015290519293506000926001600160a01b03909216916370a0823191602480820192602092909190829003018186803b158015610db957600080fd5b505afa158015610dcd573d6000803e3d6000fd5b505050506040513d6020811015610de357600080fd5b505190506000610e02836001600160701b03871663ffffffff611a8116565b90506000610e1f836001600160701b03871663ffffffff611a8116565b90506000610e2d8787611dae565b60005490915080610e6a57610e566103e86109a7610e51878763ffffffff611a1e16565b611f21565b9850610e6560006103e8611f73565b610eb9565b610eb66001600160701b038916610e87868463ffffffff611a1e16565b81610e8e57fe5b046001600160701b038916610ea9868563ffffffff611a1e16565b81610eb057fe5b04612009565b98505b60008911610ef85760405162461bcd60e51b81526004018080602001828103825260248152602001806121676024913960400191505060405180910390fd5b610f028a8a611f73565b610f0e86868a8a611ad1565b8115610f3e57600854610f3a906001600160701b0380821691600160701b90041663ffffffff611a1e16565b600b555b6040805185815260208101859052815133927f4c209b5fc8ad50758f13e2e1088ba56a560dff690a1c6fef26394f4c03821c4f928290030190a250506001600c5550949695505050505050565b60016020526000908152604090205481565b600b5481565b60046020526000908152604090205481565b600080600c54600114610fff576040805162461bcd60e51b815260206004820152600d60248201526c12ddda5ad14e881313d0d2d151609a1b604482015290519081900360640190fd5b6000600c8190558061100f610ae4565b50600654600754604080516370a0823160e01b815230600482015290519496509294506001600160a01b039182169391169160009184916370a08231916024808301926020929190829003018186803b15801561106b57600080fd5b505afa15801561107f573d6000803e3d6000fd5b505050506040513d602081101561109557600080fd5b5051604080516370a0823160e01b815230600482015290519192506000916001600160a01b038516916370a08231916024808301926020929190829003018186803b1580156110e357600080fd5b505afa1580156110f7573d6000803e3d6000fd5b505050506040513d602081101561110d57600080fd5b50513060009081526001602052604081205491925061112c8888611dae565b60005490915080611143848763ffffffff611a1e16565b8161114a57fe5b049a508061115e848663ffffffff611a1e16565b8161116557fe5b04995060008b118015611178575060008a115b6111b35760405162461bcd60e51b815260040180806020018281038252602481526020018061218b6024913960400191505060405180910390fd5b6111bd3084612021565b6111c8878d8d61188b565b6111d3868d8c61188b565b604080516370a0823160e01b815230600482015290516001600160a01b038916916370a08231916024808301926020929190829003018186803b15801561121957600080fd5b505afa15801561122d573d6000803e3d6000fd5b505050506040513d602081101561124357600080fd5b5051604080516370a0823160e01b815230600482015290519196506001600160a01b038816916370a0823191602480820192602092909190829003018186803b15801561128f57600080fd5b505afa1580156112a3573d6000803e3d6000fd5b505050506040513d60208110156112b957600080fd5b505193506112c985858b8b611ad1565b81156112f9576008546112f5906001600160701b0380821691600160701b90041663ffffffff611a1e16565b600b555b604080518c8152602081018c905281516001600160a01b038f169233927fdccd412f0b1252819cb1fd330b93224ca42612892bb3f4f789976e6d81936496929081900390910190a35050505050505050506001600c81905550915091565b60405180604001604052806007815260200166043616b652d4c560cc1b81525081565b6000610b1b338484611cf4565b6103e881565b600c546001146113d4576040805162461bcd60e51b815260206004820152600d60248201526c12ddda5ad14e881313d0d2d151609a1b604482015290519081900360640190fd5b6000600c55600654600754600854604080516370a0823160e01b815230600482015290516001600160a01b039485169490931692611483928592879261147e926001600160701b03169185916370a0823191602480820192602092909190829003018186803b15801561144657600080fd5b505afa15801561145a573d6000803e3d6000fd5b505050506040513d602081101561147057600080fd5b50519063ffffffff611a8116565b61188b565b600854604080516370a0823160e01b815230600482015290516114ea928492879261147e92600160701b90046001600160701b0316916001600160a01b038616916370a0823191602480820192602092909190829003018186803b15801561144657600080fd5b50506001600c5550565b6005546001600160a01b031681565b6007546001600160a01b031681565b42841015611558576040805162461bcd60e51b815260206004820152600e60248201526d12ddda5ad14e881156141254915160921b604482015290519081900360640190fd5b6003546001600160a01b0380891660008181526004602090815260408083208054600180820190925582517f6e71edae12b1b97f4d1f60370fef10105fa2faae0126114a169c64845d6126c98186015280840196909652958d166060860152608085018c905260a085019590955260c08085018b90528151808603909101815260e08501825280519083012061190160f01b6101008601526101028501969096526101228085019690965280518085039096018652610142840180825286519683019690962095839052610162840180825286905260ff89166101828501526101a284018890526101c28401879052519193926101e280820193601f1981019281900390910190855afa158015611673573d6000803e3d6000fd5b5050604051601f1901519150506001600160a01b038116158015906116a95750886001600160a01b0316816001600160a01b0316145b6116fa576040805162461bcd60e51b815260206004820152601860248201527f4b77696b453a20494e56414c49445f5349474e41545552450000000000000000604482015290519081900360640190fd5b611705898989611c92565b505050505050505050565b600260209081526000928352604080842090915290825290205481565b600c54600114611774576040805162461bcd60e51b815260206004820152600d60248201526c12ddda5ad14e881313d0d2d151609a1b604482015290519081900360640190fd5b6000600c55600654604080516370a0823160e01b81523060048201529051611884926001600160a01b0316916370a08231916024808301926020929190829003018186803b1580156117c557600080fd5b505afa1580156117d9573d6000803e3d6000fd5b505050506040513d60208110156117ef57600080fd5b5051600754604080516370a0823160e01b815230600482015290516001600160a01b03909216916370a0823191602480820192602092909190829003018186803b15801561183c57600080fd5b505afa158015611850573d6000803e3d6000fd5b505050506040513d602081101561186657600080fd5b50516008546001600160701b0380821691600160701b900416611ad1565b6001600c55565b604080518082018252601981527f7472616e7366657228616464726573732c75696e74323536290000000000000060209182015281516001600160a01b0385811660248301526044808301869052845180840390910181526064909201845291810180516001600160e01b031663a9059cbb60e01b1781529251815160009460609489169392918291908083835b602083106119385780518252601f199092019160209182019101611919565b6001836020036101000a0380198251168184511680821785525050505050509050019150506000604051808303816000865af19150503d806000811461199a576040519150601f19603f3d011682016040523d82523d6000602084013e61199f565b606091505b50915091508180156119cd5750805115806119cd57508080602001905160208110156119ca57600080fd5b50515b611a17576040805162461bcd60e51b815260206004820152601660248201527512ddda5ad14e881514905394d1915497d1905253115160521b604482015290519081900360640190fd5b5050505050565b6000811580611a3957505080820282828281611a3657fe5b04145b610b1f576040805162461bcd60e51b815260206004820152601460248201527364732d6d6174682d6d756c2d6f766572666c6f7760601b604482015290519081900360640190fd5b80820382811115610b1f576040805162461bcd60e51b815260206004820152601560248201527464732d6d6174682d7375622d756e646572666c6f7760581b604482015290519081900360640190fd5b6001600160701b038411801590611aef57506001600160701b038311155b611b32576040805162461bcd60e51b815260206004820152600f60248201526e4b77696b453a204f564552464c4f5760881b604482015290519081900360640190fd5b60085463ffffffff42811691600160e01b90048116820390811615801590611b6257506001600160701b03841615155b8015611b7657506001600160701b03831615155b15611be7578063ffffffff16611ba485611b8f866120bf565b6001600160e01b03169063ffffffff6120d116565b600980546001600160e01b03929092169290920201905563ffffffff8116611bcf84611b8f876120bf565b600a80546001600160e01b0392909216929092020190555b600880546dffffffffffffffffffffffffffff19166001600160701b03888116919091176dffffffffffffffffffffffffffff60701b1916600160701b8883168102919091176001600160e01b0316600160e01b63ffffffff871602179283905560408051848416815291909304909116602082015281517f1c411e9a96e071241c2f21f7726b17ae89e3cab4c78be50e062b03a9fffbbad1929181900390910190a1505050505050565b6001600160a01b03808416600081815260026020908152604080832094871680845294825291829020859055815185815291517f8c5be1e5ebec7d5bd14f71427d1e84f3dd0314c0f7b2291e5b200ac8c7c3b9259281900390910190a3505050565b6001600160a01b038316600090815260016020526040902054611d1d908263ffffffff611a8116565b6001600160a01b038085166000908152600160205260408082209390935590841681522054611d52908263ffffffff6120f616565b6001600160a01b0380841660008181526001602090815260409182902094909455805185815290519193928716927fddf252ad1be2c89b69c2b068fc378daa952ba7f163c4a11628f55a4df523b3ef92918290030190a3505050565b600080600560009054906101000a90046001600160a01b03166001600160a01b031663017e7e586040518163ffffffff1660e01b815260040160206040518083038186803b158015611dff57600080fd5b505afa158015611e13573d6000803e3d6000fd5b505050506040513d6020811015611e2957600080fd5b5051600b546001600160a01b038216158015945091925090611f0d578015611f08576000611e6c610e516001600160701b0388811690881663ffffffff611a1e16565b90506000611e7983611f21565b905080821115611f05576000611eac60086109f1611e9d868663ffffffff611a8116565b6000549063ffffffff611a1e16565b90506000611ee1611ec484600863ffffffff611a1e16565b611ed586601163ffffffff611a1e16565b9063ffffffff6120f616565b90506000818381611eee57fe5b0490508015611f0157611f018782611f73565b5050505b50505b611f19565b8015611f19576000600b555b505092915050565b60006003821115611f64575080600160028204015b81811015611f5e57809150600281828581611f4d57fe5b040181611f5657fe5b049050611f36565b50611f6e565b8115611f6e575060015b919050565b600054611f86908263ffffffff6120f616565b60009081556001600160a01b038316815260016020526040902054611fb1908263ffffffff6120f616565b6001600160a01b03831660008181526001602090815260408083209490945583518581529351929391927fddf252ad1be2c89b69c2b068fc378daa952ba7f163c4a11628f55a4df523b3ef9281900390910190a35050565b6000818310612018578161201a565b825b9392505050565b6001600160a01b03821660009081526001602052604090205461204a908263ffffffff611a8116565b6001600160a01b03831660009081526001602052604081209190915554612077908263ffffffff611a8116565b60009081556040805183815290516001600160a01b038516917fddf252ad1be2c89b69c2b068fc378daa952ba7f163c4a11628f55a4df523b3ef919081900360200190a35050565b6001600160701b0316600160701b0290565b60006001600160701b0382166001600160e01b038416816120ee57fe5b049392505050565b80820182811015610b1f576040805162461bcd60e51b815260206004820152601460248201527364732d6d6174682d6164642d6f766572666c6f7760601b604482015290519081900360640190fdfe4b77696b453a20494e53554646494349454e545f4f55545055545f414d4f554e544b77696b453a20494e53554646494349454e545f4c49515549444954595f4d494e5445444b77696b453a20494e53554646494349454e545f4c49515549444954595f4255524e4544a265627a7a72315820aeb8c10fb55149557527a0de772e6b83256c2afeda9c0cac821d82b347b1cb2264736f6c63430005100032454950373132446f6d61696e28737472696e67206e616d652c737472696e672076657273696f6e2c75696e7432353620636861696e49642c6164647265737320766572696679696e67436f6e747261637429a265627a7a72315820b74ce4d5d721eb36f13a01b5087b79a19bade70784a4759a27678d1f98c3b6f664736f6c63430005100032",
    "linkReferences": {}
  },
  "methodIdentifiers": {
    "INIT_CODE_PAIR_HASH()": "5855a25a",
    "allPairs(uint256)": "1e3dd18b",
    "allPairsLength()": "574f2ba3",
    "createPair(address,address)": "c9c65396",
    "feeTo()": "017e7e58",
    "feeToSetter()": "094b7415",
    "getPair(address,address)": "e6a43905",
    "getaPair(address,address)": "59d8518f",
    "setFeeTo(address)": "f46901ed",
    "setFeeToSetter(address)": "a2e74af6"
  },
  "id": 0
}