{
  "abi": [
    {
      "inputs": [],
      "stateMutability": "nonpayable",
      "type": "constructor"
    },
    {
      "inputs": [],
      "name": "hello",
      "outputs": [
        {
          "internalType": "contract Hello",
          "name": "",
          "type": "address"
        }
      ],
      "stateMutability": "view",
      "type": "function"
    },
    {
      "inputs": [],
      "name": "isSolved",
      "outputs": [
        {
          "internalType": "bool",
          "name": "",
          "type": "bool"
        }
      ],
      "stateMutability": "view",
      "type": "function"
    }
  ],
  "bytecode": {
    "object": "0x608060405234801561001057600080fd5b5060405161001d9061005f565b604051809103906000f080158015610039573d6000803e3d6000fd5b50600080546001600160a01b0319166001600160a01b039290921691909117905561006b565b60c8806101d983390190565b61015f8061007a6000396000f3fe608060405234801561001057600080fd5b50600436106100365760003560e01c806319ff1d211461003b57806364d98f6e1461006b575b600080fd5b60005461004e906001600160a01b031681565b6040516001600160a01b0390911681526020015b60405180910390f35b610073610083565b6040519015158152602001610062565b60008060009054906101000a90046001600160a01b03166001600160a01b031663799320bb6040518163ffffffff1660e01b8152600401602060405180830381865afa1580156100d7573d6000803e3d6000fd5b505050506040513d601f19601f820116820180604052508101906100fb9190610100565b905090565b60006020828403121561011257600080fd5b8151801515811461012257600080fd5b939250505056fea2646970667358221220a959a13e1dabbe41304f4676703066904a52bb0633eca45dd60f3fd19191199c64736f6c6343000814003360806040526000805460ff19169055348015601957600080fd5b5060a0806100286000396000f3fe6080604052348015600f57600080fd5b506004361060325760003560e01c8063799320bb146037578063890d6908146057575b600080fd5b60005460439060ff1681565b604051901515815260200160405180910390f35b60686000805460ff19166001179055565b00fea26469706673582212207557f3d6441d60b5bb48308ddaba21fcced4300b335abb59e00a9e6c1110de9c64736f6c63430008140033",
    "linkReferences": {}
  },
  "methodIdentifiers": {
    "hello()": "19ff1d21",
    "isSolved()": "64d98f6e"
  },
  "id": 28
}