{
  "abi": [
    {
      "inputs": [],
      "stateMutability": "nonpayable",
      "type": "constructor"
    },
    {
      "anonymous": false,
      "inputs": [
        {
          "indexed": true,
          "internalType": "address",
          "name": "owner",
          "type": "address"
        },
        {
          "indexed": true,
          "internalType": "address",
          "name": "spender",
          "type": "address"
        },
        {
          "indexed": false,
          "internalType": "uint256",
          "name": "value",
          "type": "uint256"
        }
      ],
      "name": "Approval",
      "type": "event"
    },
    {
      "anonymous": false,
      "inputs": [
        {
          "indexed": true,
          "internalType": "address",
          "name": "from",
          "type": "address"
        },
        {
          "indexed": true,
          "internalType": "address",
          "name": "to",
          "type": "address"
        },
        {
          "indexed": false,
          "internalType": "uint256",
          "name": "value",
          "type": "uint256"
        }
      ],
      "name": "Transfer",
      "type": "event"
    },
    {
      "inputs": [
        {
          "internalType": "address",
          "name": "",
          "type": "address"
        },
        {
          "internalType": "address",
          "name": "",
          "type": "address"
        }
      ],
      "name": "allowance",
      "outputs": [
        {
          "internalType": "uint256",
          "name": "",
          "type": "uint256"
        }
      ],
      "stateMutability": "view",
      "type": "function"
    },
    {
      "inputs": [
        {
          "internalType": "address",
          "name": "spender",
          "type": "address"
        },
        {
          "internalType": "uint256",
          "name": "amount",
          "type": "uint256"
        }
      ],
      "name": "approve",
      "outputs": [
        {
          "internalType": "bool",
          "name": "",
          "type": "bool"
        }
      ],
      "stateMutability": "nonpayable",
      "type": "function"
    },
    {
      "inputs": [
        {
          "internalType": "uint256",
          "name": "amount",
          "type": "uint256"
        }
      ],
      "name": "approve",
      "outputs": [
        {
          "internalType": "bool",
          "name": "",
          "type": "bool"
        }
      ],
      "stateMutability": "nonpayable",
      "type": "function"
    },
    {
      "inputs": [
        {
          "internalType": "address",
          "name": "",
          "type": "address"
        }
      ],
      "name": "balanceOf",
      "outputs": [
        {
          "internalType": "uint256",
          "name": "",
          "type": "uint256"
        }
      ],
      "stateMutability": "view",
      "type": "function"
    },
    {
      "inputs": [
        {
          "internalType": "uint256",
          "name": "amount",
          "type": "uint256"
        }
      ],
      "name": "burn",
      "outputs": [],
      "stateMutability": "nonpayable",
      "type": "function"
    },
    {
      "inputs": [],
      "name": "decimals",
      "outputs": [
        {
          "internalType": "uint8",
          "name": "",
          "type": "uint8"
        }
      ],
      "stateMutability": "view",
      "type": "function"
    },
    {
      "inputs": [
        {
          "internalType": "address",
          "name": "src",
          "type": "address"
        }
      ],
      "name": "getAllowance",
      "outputs": [
        {
          "internalType": "uint256",
          "name": "",
          "type": "uint256"
        }
      ],
      "stateMutability": "view",
      "type": "function"
    },
    {
      "inputs": [
        {
          "internalType": "address",
          "name": "guy",
          "type": "address"
        }
      ],
      "name": "getBalanceOf",
      "outputs": [
        {
          "internalType": "uint256",
          "name": "",
          "type": "uint256"
        }
      ],
      "stateMutability": "view",
      "type": "function"
    },
    {
      "inputs": [
        {
          "internalType": "uint256",
          "name": "amount",
          "type": "uint256"
        }
      ],
      "name": "mint",
      "outputs": [],
      "stateMutability": "nonpayable",
      "type": "function"
    },
    {
      "inputs": [],
      "name": "name",
      "outputs": [
        {
          "internalType": "string",
          "name": "",
          "type": "string"
        }
      ],
      "stateMutability": "view",
      "type": "function"
    },
    {
      "inputs": [],
      "name": "symbol",
      "outputs": [
        {
          "internalType": "string",
          "name": "",
          "type": "string"
        }
      ],
      "stateMutability": "view",
      "type": "function"
    },
    {
      "inputs": [],
      "name": "totalSupply",
      "outputs": [
        {
          "internalType": "uint256",
          "name": "",
          "type": "uint256"
        }
      ],
      "stateMutability": "view",
      "type": "function"
    },
    {
      "inputs": [
        {
          "internalType": "address",
          "name": "recipient",
          "type": "address"
        },
        {
          "internalType": "uint256",
          "name": "amount",
          "type": "uint256"
        }
      ],
      "name": "transfer",
      "outputs": [
        {
          "internalType": "bool",
          "name": "",
          "type": "bool"
        }
      ],
      "stateMutability": "nonpayable",
      "type": "function"
    },
    {
      "inputs": [
        {
          "internalType": "address",
          "name": "sender",
          "type": "address"
        },
        {
          "internalType": "address",
          "name": "recipient",
          "type": "address"
        },
        {
          "internalType": "uint256",
          "name": "amount",
          "type": "uint256"
        }
      ],
      "name": "transferFrom",
      "outputs": [
        {
          "internalType": "bool",
          "name": "",
          "type": "bool"
        }
      ],
      "stateMutability": "nonpayable",
      "type": "function"
    }
  ],
  "bytecode": {
    "object": "0x69d3c21bcecceda100000060005560c0604052601660809081527f506f756e65536f6d65536f6c6964697479326561726e0000000000000000000060a05260039061004a9082610147565b50604080518082019091526007815266282ba72722a92760c91b60208201526004906100769082610147565b506005805460ff1916601217905534801561009057600080fd5b50600080543382526001602052604090912055610206565b634e487b7160e01b600052604160045260246000fd5b600181811c908216806100d257607f821691505b6020821081036100f257634e487b7160e01b600052602260045260246000fd5b50919050565b601f82111561014257600081815260208120601f850160051c8101602086101561011f5750805b601f850160051c820191505b8181101561013e5782815560010161012b565b5050505b505050565b81516001600160401b03811115610160576101606100a8565b6101748161016e84546100be565b846100f8565b602080601f8311600181146101a957600084156101915750858301515b600019600386901b1c1916600185901b17855561013e565b600085815260208120601f198616915b828110156101d8578886015182559484019460019091019084016101b9565b50858210156101f65787850151600019600388901b60f8161c191681555b5050505050600190811b01905550565b6107d1806102156000396000f3fe608060405234801561001057600080fd5b50600436106100ea5760003560e01c806395d89b411161008c578063a9059cbb11610066578063a9059cbb146101f2578063b759f95414610205578063dd62ed3e14610218578063eb5a662e1461024357600080fd5b806395d89b41146101ae5780639b96eece146101b6578063a0712d68146101df57600080fd5b806323b872dd116100c857806323b872dd14610147578063313ce5671461015a57806342966c681461017957806370a082311461018e57600080fd5b806306fdde03146100ef578063095ea7b31461010d57806318160ddd14610130575b600080fd5b6100f7610279565b60405161010491906105c7565b60405180910390f35b61012061011b366004610631565b610307565b6040519015158152602001610104565b61013960005481565b604051908152602001610104565b61012061015536600461065b565b610374565b6005546101679060ff1681565b60405160ff9091168152602001610104565b61018c610187366004610697565b610417565b005b61013961019c3660046106b0565b60016020526000908152604090205481565b6100f761047d565b6101396101c43660046106b0565b6001600160a01b031660009081526001602052604090205490565b61018c6101ed366004610697565b61048a565b610120610200366004610631565b6104e9565b610120610213366004610697565b610567565b6101396102263660046106d2565b600260209081526000928352604080842090915290825290205481565b6101396102513660046106b0565b3360009081526002602090815260408083206001600160a01b03949094168352929052205490565b6003805461028690610705565b80601f01602080910402602001604051908101604052809291908181526020018280546102b290610705565b80156102ff5780601f106102d4576101008083540402835291602001916102ff565b820191906000526020600020905b8154815290600101906020018083116102e257829003601f168201915b505050505081565b3360008181526002602090815260408083206001600160a01b038716808552925280832085905551919290917f8c5be1e5ebec7d5bd14f71427d1e84f3dd0314c0f7b2291e5b200ac8c7c3b925906103629086815260200190565b60405180910390a35060015b92915050565b6001600160a01b03831660009081526001602052604081208054839190839061039e908490610755565b90915550506001600160a01b038316600090815260016020526040812080548492906103cb908490610768565b92505081905550826001600160a01b0316846001600160a01b031660008051602061077c8339815191528460405161040591815260200190565b60405180910390a35060019392505050565b3360009081526001602052604081208054839290610436908490610755565b925050819055508060008082825461044e9190610755565b9091555050604051818152600090339060008051602061077c833981519152906020015b60405180910390a350565b6004805461028690610705565b33600090815260016020526040812080548392906104a9908490610768565b92505081905550806000808282546104c19190610768565b9091555050604051818152339060009060008051602061077c83398151915290602001610472565b3360009081526001602052604081208054839190839061050a908490610755565b90915550506001600160a01b03831660009081526001602052604081208054849290610537908490610768565b90915550506040518281526001600160a01b03841690339060008051602061077c83398151915290602001610362565b3360008181526002602090815260408083208252808320859055600182528083208590555184815291929182917f8c5be1e5ebec7d5bd14f71427d1e84f3dd0314c0f7b2291e5b200ac8c7c3b925910160405180910390a3506001919050565b600060208083528351808285015260005b818110156105f4578581018301518582016040015282016105d8565b506000604082860101526040601f19601f8301168501019250505092915050565b80356001600160a01b038116811461062c57600080fd5b919050565b6000806040838503121561064457600080fd5b61064d83610615565b946020939093013593505050565b60008060006060848603121561067057600080fd5b61067984610615565b925061068760208501610615565b9150604084013590509250925092565b6000602082840312156106a957600080fd5b5035919050565b6000602082840312156106c257600080fd5b6106cb82610615565b9392505050565b600080604083850312156106e557600080fd5b6106ee83610615565b91506106fc60208401610615565b90509250929050565b600181811c9082168061071957607f821691505b60208210810361073957634e487b7160e01b600052602260045260246000fd5b50919050565b634e487b7160e01b600052601160045260246000fd5b8181038181111561036e5761036e61073f565b8082018082111561036e5761036e61073f56feddf252ad1be2c89b69c2b068fc378daa952ba7f163c4a11628f55a4df523b3efa2646970667358221220e51b8356dd35e8b1440c645e2569103c3ae35afc0d7bc02e22d7ac24a067542e64736f6c63430008140033",
    "linkReferences": {}
  },
  "methodIdentifiers": {
    "allowance(address,address)": "dd62ed3e",
    "approve(address,uint256)": "095ea7b3",
    "approve(uint256)": "b759f954",
    "balanceOf(address)": "70a08231",
    "burn(uint256)": "42966c68",
    "decimals()": "313ce567",
    "getAllowance(address)": "eb5a662e",
    "getBalanceOf(address)": "9b96eece",
    "mint(uint256)": "a0712d68",
    "name()": "06fdde03",
    "symbol()": "95d89b41",
    "totalSupply()": "18160ddd",
    "transfer(address,uint256)": "a9059cbb",
    "transferFrom(address,address,uint256)": "23b872dd"
  },
  "id": 11
}