{
  "abi": [
    {
      "inputs": [],
      "stateMutability": "nonpayable",
      "type": "constructor"
    },
    {
      "anonymous": false,
      "inputs": [
        {
          "indexed": true,
          "internalType": "address",
          "name": "owner",
          "type": "address"
        },
        {
          "indexed": true,
          "internalType": "address",
          "name": "spender",
          "type": "address"
        },
        {
          "indexed": false,
          "internalType": "uint256",
          "name": "value",
          "type": "uint256"
        }
      ],
      "name": "Approval",
      "type": "event"
    },
    {
      "anonymous": false,
      "inputs": [
        {
          "indexed": true,
          "internalType": "address",
          "name": "from",
          "type": "address"
        },
        {
          "indexed": true,
          "internalType": "address",
          "name": "to",
          "type": "address"
        },
        {
          "indexed": false,
          "internalType": "uint256",
          "name": "value",
          "type": "uint256"
        }
      ],
      "name": "Transfer",
      "type": "event"
    },
    {
      "inputs": [
        {
          "internalType": "address",
          "name": "",
          "type": "address"
        },
        {
          "internalType": "address",
          "name": "",
          "type": "address"
        }
      ],
      "name": "allowance",
      "outputs": [
        {
          "internalType": "uint256",
          "name": "",
          "type": "uint256"
        }
      ],
      "stateMutability": "view",
      "type": "function"
    },
    {
      "inputs": [
        {
          "internalType": "address",
          "name": "spender",
          "type": "address"
        },
        {
          "internalType": "uint256",
          "name": "amount",
          "type": "uint256"
        }
      ],
      "name": "approve",
      "outputs": [
        {
          "internalType": "bool",
          "name": "",
          "type": "bool"
        }
      ],
      "stateMutability": "nonpayable",
      "type": "function"
    },
    {
      "inputs": [
        {
          "internalType": "address",
          "name": "",
          "type": "address"
        }
      ],
      "name": "balanceOf",
      "outputs": [
        {
          "internalType": "uint256",
          "name": "",
          "type": "uint256"
        }
      ],
      "stateMutability": "view",
      "type": "function"
    },
    {
      "inputs": [
        {
          "internalType": "uint256",
          "name": "amount",
          "type": "uint256"
        }
      ],
      "name": "burn",
      "outputs": [],
      "stateMutability": "nonpayable",
      "type": "function"
    },
    {
      "inputs": [],
      "name": "decimals",
      "outputs": [
        {
          "internalType": "uint8",
          "name": "",
          "type": "uint8"
        }
      ],
      "stateMutability": "view",
      "type": "function"
    },
    {
      "inputs": [
        {
          "internalType": "address",
          "name": "src",
          "type": "address"
        }
      ],
      "name": "getAllowance",
      "outputs": [
        {
          "internalType": "uint256",
          "name": "",
          "type": "uint256"
        }
      ],
      "stateMutability": "view",
      "type": "function"
    },
    {
      "inputs": [
        {
          "internalType": "address",
          "name": "guy",
          "type": "address"
        }
      ],
      "name": "getBalanceOf",
      "outputs": [
        {
          "internalType": "uint256",
          "name": "",
          "type": "uint256"
        }
      ],
      "stateMutability": "view",
      "type": "function"
    },
    {
      "inputs": [],
      "name": "isOwner",
      "outputs": [
        {
          "internalType": "bool",
          "name": "",
          "type": "bool"
        }
      ],
      "stateMutability": "view",
      "type": "function"
    },
    {
      "inputs": [
        {
          "internalType": "uint256",
          "name": "amount",
          "type": "uint256"
        }
      ],
      "name": "mint",
      "outputs": [],
      "stateMutability": "nonpayable",
      "type": "function"
    },
    {
      "inputs": [],
      "name": "name",
      "outputs": [
        {
          "internalType": "string",
          "name": "",
          "type": "string"
        }
      ],
      "stateMutability": "view",
      "type": "function"
    },
    {
      "inputs": [],
      "name": "owner",
      "outputs": [
        {
          "internalType": "address",
          "name": "",
          "type": "address"
        }
      ],
      "stateMutability": "view",
      "type": "function"
    },
    {
      "inputs": [],
      "name": "symbol",
      "outputs": [
        {
          "internalType": "string",
          "name": "",
          "type": "string"
        }
      ],
      "stateMutability": "view",
      "type": "function"
    },
    {
      "inputs": [],
      "name": "totalSupply",
      "outputs": [
        {
          "internalType": "uint256",
          "name": "",
          "type": "uint256"
        }
      ],
      "stateMutability": "view",
      "type": "function"
    },
    {
      "inputs": [
        {
          "internalType": "address",
          "name": "recipient",
          "type": "address"
        },
        {
          "internalType": "uint256",
          "name": "amount",
          "type": "uint256"
        }
      ],
      "name": "transfer",
      "outputs": [
        {
          "internalType": "bool",
          "name": "",
          "type": "bool"
        }
      ],
      "stateMutability": "nonpayable",
      "type": "function"
    },
    {
      "inputs": [
        {
          "internalType": "address",
          "name": "sender",
          "type": "address"
        },
        {
          "internalType": "address",
          "name": "recipient",
          "type": "address"
        },
        {
          "internalType": "uint256",
          "name": "amount",
          "type": "uint256"
        }
      ],
      "name": "transferFrom",
      "outputs": [
        {
          "internalType": "bool",
          "name": "",
          "type": "bool"
        }
      ],
      "stateMutability": "nonpayable",
      "type": "function"
    }
  ],
  "bytecode": {
    "object": "0x69d3c21bcecceda100000060015560c0604052601960809081527f504f504f20544f4b454e20544f20544845204d4f4f4e2058330000000000000060a05260049061004a9082610157565b50604080518082019091526004815263504f504f60e01b60208201526005906100739082610157565b506006805460ff1916601217905534801561008d57600080fd5b50600080546001600160a01b0319163390811782556001549082526002602052604090912055610216565b634e487b7160e01b600052604160045260246000fd5b600181811c908216806100e257607f821691505b60208210810361010257634e487b7160e01b600052602260045260246000fd5b50919050565b601f82111561015257600081815260208120601f850160051c8101602086101561012f5750805b601f850160051c820191505b8181101561014e5782815560010161013b565b5050505b505050565b81516001600160401b03811115610170576101706100b8565b6101848161017e84546100ce565b84610108565b602080601f8311600181146101b957600084156101a15750858301515b600019600386901b1c1916600185901b17855561014e565b600085815260208120601f198616915b828110156101e8578886015182559484019460019091019084016101c9565b50858210156102065787850151600019600388901b60f8161c191681555b5050505050600190811b01905550565b61078c806102256000396000f3fe608060405234801561001057600080fd5b50600436106100f55760003560e01c80638da5cb5b11610097578063a0712d6811610066578063a0712d6814610218578063a9059cbb1461022b578063dd62ed3e1461023e578063eb5a662e1461026957600080fd5b80638da5cb5b146101b95780638f32d59b146101d457806395d89b41146101e75780639b96eece146101ef57600080fd5b806323b872dd116100d357806323b872dd14610152578063313ce5671461016557806342966c681461018457806370a082311461019957600080fd5b806306fdde03146100fa578063095ea7b31461011857806318160ddd1461013b575b600080fd5b61010261029f565b60405161010f9190610589565b60405180910390f35b61012b6101263660046105f3565b61032d565b604051901515815260200161010f565b61014460015481565b60405190815260200161010f565b61012b61016036600461061d565b61039a565b6006546101729060ff1681565b60405160ff909116815260200161010f565b610197610192366004610659565b61043d565b005b6101446101a7366004610672565b60026020526000908152604090205481565b6000546040516001600160a01b03909116815260200161010f565b6000546001600160a01b0316331461012b565b61010261049f565b6101446101fd366004610672565b6001600160a01b031660009081526002602052604090205490565b610197610226366004610659565b6104ac565b61012b6102393660046105f3565b6104f8565b61014461024c36600461068d565b600360209081526000928352604080842090915290825290205481565b610144610277366004610672565b3360009081526003602090815260408083206001600160a01b03949094168352929052205490565b600480546102ac906106c0565b80601f01602080910402602001604051908101604052809291908181526020018280546102d8906106c0565b80156103255780601f106102fa57610100808354040283529160200191610325565b820191906000526020600020905b81548152906001019060200180831161030857829003601f168201915b505050505081565b3360008181526003602090815260408083206001600160a01b038716808552925280832085905551919290917f8c5be1e5ebec7d5bd14f71427d1e84f3dd0314c0f7b2291e5b200ac8c7c3b925906103889086815260200190565b60405180910390a35060015b92915050565b6001600160a01b0383166000908152600260205260408120805483919083906103c4908490610710565b90915550506001600160a01b038316600090815260026020526040812080548492906103f1908490610723565b92505081905550826001600160a01b0316846001600160a01b03166000805160206107378339815191528460405161042b91815260200190565b60405180910390a35060019392505050565b336000908152600260205260409020546104579082610576565b336000908152600260205260409020556001546104749082610576565b506040518181526000903390600080516020610737833981519152906020015b60405180910390a350565b600580546102ac906106c0565b336000908152600260205260409020546104c69082610576565b506001546104d49082610576565b50604051818152339060009060008051602061073783398151915290602001610494565b33600090815260026020526040812080548391908390610519908490610710565b90915550506001600160a01b03831660009081526002602052604081208054849290610546908490610723565b90915550506040518281526001600160a01b03841690339060008051602061073783398151915290602001610388565b60006105828284610723565b9392505050565b600060208083528351808285015260005b818110156105b65785810183015185820160400152820161059a565b506000604082860101526040601f19601f8301168501019250505092915050565b80356001600160a01b03811681146105ee57600080fd5b919050565b6000806040838503121561060657600080fd5b61060f836105d7565b946020939093013593505050565b60008060006060848603121561063257600080fd5b61063b846105d7565b9250610649602085016105d7565b9150604084013590509250925092565b60006020828403121561066b57600080fd5b5035919050565b60006020828403121561068457600080fd5b610582826105d7565b600080604083850312156106a057600080fd5b6106a9836105d7565b91506106b7602084016105d7565b90509250929050565b600181811c908216806106d457607f821691505b6020821081036106f457634e487b7160e01b600052602260045260246000fd5b50919050565b634e487b7160e01b600052601160045260246000fd5b81810381811115610394576103946106fa565b80820180821115610394576103946106fa56feddf252ad1be2c89b69c2b068fc378daa952ba7f163c4a11628f55a4df523b3efa2646970667358221220129d6410603692bd6660798c03c429fc372b14b567d8e507c0847c3847a57bc764736f6c63430008140033",
    "linkReferences": {}
  },
  "methodIdentifiers": {
    "allowance(address,address)": "dd62ed3e",
    "approve(address,uint256)": "095ea7b3",
    "balanceOf(address)": "70a08231",
    "burn(uint256)": "42966c68",
    "decimals()": "313ce567",
    "getAllowance(address)": "eb5a662e",
    "getBalanceOf(address)": "9b96eece",
    "isOwner()": "8f32d59b",
    "mint(uint256)": "a0712d68",
    "name()": "06fdde03",
    "owner()": "8da5cb5b",
    "symbol()": "95d89b41",
    "totalSupply()": "18160ddd",
    "transfer(address,uint256)": "a9059cbb",
    "transferFrom(address,address,uint256)": "23b872dd"
  },
  "id": 12
}