{
  "abi": [
    {
      "inputs": [],
      "stateMutability": "nonpayable",
      "type": "constructor"
    },
    {
      "anonymous": false,
      "inputs": [
        {
          "indexed": true,
          "internalType": "address",
          "name": "owner",
          "type": "address"
        },
        {
          "indexed": true,
          "internalType": "address",
          "name": "approved",
          "type": "address"
        },
        {
          "indexed": true,
          "internalType": "uint256",
          "name": "tokenId",
          "type": "uint256"
        }
      ],
      "name": "Approval",
      "type": "event"
    },
    {
      "anonymous": false,
      "inputs": [
        {
          "indexed": true,
          "internalType": "address",
          "name": "owner",
          "type": "address"
        },
        {
          "indexed": true,
          "internalType": "address",
          "name": "operator",
          "type": "address"
        },
        {
          "indexed": false,
          "internalType": "bool",
          "name": "approved",
          "type": "bool"
        }
      ],
      "name": "ApprovalForAll",
      "type": "event"
    },
    {
      "anonymous": false,
      "inputs": [
        {
          "indexed": true,
          "internalType": "address",
          "name": "from",
          "type": "address"
        },
        {
          "indexed": true,
          "internalType": "address",
          "name": "to",
          "type": "address"
        },
        {
          "indexed": true,
          "internalType": "uint256",
          "name": "tokenId",
          "type": "uint256"
        }
      ],
      "name": "Transfer",
      "type": "event"
    },
    {
      "inputs": [
        {
          "internalType": "address",
          "name": "to",
          "type": "address"
        },
        {
          "internalType": "uint256",
          "name": "tokenId",
          "type": "uint256"
        }
      ],
      "name": "approve",
      "outputs": [],
      "stateMutability": "nonpayable",
      "type": "function"
    },
    {
      "inputs": [
        {
          "internalType": "address",
          "name": "owner",
          "type": "address"
        }
      ],
      "name": "balanceOf",
      "outputs": [
        {
          "internalType": "uint256",
          "name": "",
          "type": "uint256"
        }
      ],
      "stateMutability": "view",
      "type": "function"
    },
    {
      "inputs": [
        {
          "internalType": "uint256",
          "name": "_tokenId",
          "type": "uint256"
        }
      ],
      "name": "burn",
      "outputs": [],
      "stateMutability": "nonpayable",
      "type": "function"
    },
    {
      "inputs": [
        {
          "internalType": "uint256",
          "name": "tokenId",
          "type": "uint256"
        }
      ],
      "name": "getApproved",
      "outputs": [
        {
          "internalType": "address",
          "name": "",
          "type": "address"
        }
      ],
      "stateMutability": "view",
      "type": "function"
    },
    {
      "inputs": [
        {
          "internalType": "address",
          "name": "owner",
          "type": "address"
        },
        {
          "internalType": "address",
          "name": "operator",
          "type": "address"
        }
      ],
      "name": "isApprovedForAll",
      "outputs": [
        {
          "internalType": "bool",
          "name": "",
          "type": "bool"
        }
      ],
      "stateMutability": "view",
      "type": "function"
    },
    {
      "inputs": [
        {
          "internalType": "address",
          "name": "_to",
          "type": "address"
        },
        {
          "internalType": "uint256",
          "name": "_tokenId",
          "type": "uint256"
        }
      ],
      "name": "mint",
      "outputs": [],
      "stateMutability": "nonpayable",
      "type": "function"
    },
    {
      "inputs": [],
      "name": "name",
      "outputs": [
        {
          "internalType": "string",
          "name": "",
          "type": "string"
        }
      ],
      "stateMutability": "view",
      "type": "function"
    },
    {
      "inputs": [
        {
          "internalType": "uint256",
          "name": "tokenId",
          "type": "uint256"
        }
      ],
      "name": "ownerOf",
      "outputs": [
        {
          "internalType": "address",
          "name": "",
          "type": "address"
        }
      ],
      "stateMutability": "view",
      "type": "function"
    },
    {
      "inputs": [
        {
          "internalType": "address",
          "name": "from",
          "type": "address"
        },
        {
          "internalType": "address",
          "name": "to",
          "type": "address"
        },
        {
          "internalType": "uint256",
          "name": "tokenId",
          "type": "uint256"
        }
      ],
      "name": "safeTransferFrom",
      "outputs": [],
      "stateMutability": "nonpayable",
      "type": "function"
    },
    {
      "inputs": [
        {
          "internalType": "address",
          "name": "from",
          "type": "address"
        },
        {
          "internalType": "address",
          "name": "to",
          "type": "address"
        },
        {
          "internalType": "uint256",
          "name": "tokenId",
          "type": "uint256"
        },
        {
          "internalType": "bytes",
          "name": "data",
          "type": "bytes"
        }
      ],
      "name": "safeTransferFrom",
      "outputs": [],
      "stateMutability": "nonpayable",
      "type": "function"
    },
    {
      "inputs": [
        {
          "internalType": "address",
          "name": "operator",
          "type": "address"
        },
        {
          "internalType": "bool",
          "name": "approved",
          "type": "bool"
        }
      ],
      "name": "setApprovalForAll",
      "outputs": [],
      "stateMutability": "nonpayable",
      "type": "function"
    },
    {
      "inputs": [
        {
          "internalType": "bytes4",
          "name": "interfaceId",
          "type": "bytes4"
        }
      ],
      "name": "supportsInterface",
      "outputs": [
        {
          "internalType": "bool",
          "name": "",
          "type": "bool"
        }
      ],
      "stateMutability": "view",
      "type": "function"
    },
    {
      "inputs": [],
      "name": "symbol",
      "outputs": [
        {
          "internalType": "string",
          "name": "",
          "type": "string"
        }
      ],
      "stateMutability": "view",
      "type": "function"
    },
    {
      "inputs": [
        {
          "internalType": "uint256",
          "name": "tokenId",
          "type": "uint256"
        }
      ],
      "name": "tokenURI",
      "outputs": [
        {
          "internalType": "string",
          "name": "",
          "type": "string"
        }
      ],
      "stateMutability": "view",
      "type": "function"
    },
    {
      "inputs": [
        {
          "internalType": "address",
          "name": "from",
          "type": "address"
        },
        {
          "internalType": "address",
          "name": "to",
          "type": "address"
        },
        {
          "internalType": "uint256",
          "name": "tokenId",
          "type": "uint256"
        }
      ],
      "name": "transferFrom",
      "outputs": [],
      "stateMutability": "nonpayable",
      "type": "function"
    }
  ],
  "bytecode": {
    "object": "0x60806040523480156200001157600080fd5b506040518060400160405280600981526020016827232a102a37b5b2b760b91b8152506040518060400160405280600381526020016213919560ea1b81525081600090816200006191906200011e565b5060016200007082826200011e565b505050620001ea565b634e487b7160e01b600052604160045260246000fd5b600181811c90821680620000a457607f821691505b602082108103620000c557634e487b7160e01b600052602260045260246000fd5b50919050565b601f8211156200011957600081815260208120601f850160051c81016020861015620000f45750805b601f850160051c820191505b81811015620001155782815560010162000100565b5050505b505050565b81516001600160401b038111156200013a576200013a62000079565b62000152816200014b84546200008f565b84620000cb565b602080601f8311600181146200018a5760008415620001715750858301515b600019600386901b1c1916600185901b17855562000115565b600085815260208120601f198616915b82811015620001bb578886015182559484019460019091019084016200019a565b5085821015620001da5787850151600019600388901b60f8161c191681555b5050505050600190811b01905550565b61141780620001fa6000396000f3fe608060405234801561001057600080fd5b50600436106100f55760003560e01c806342966c6811610097578063a22cb46511610066578063a22cb465146101ff578063b88d4fde14610212578063c87b56dd14610225578063e985e9c51461023857600080fd5b806342966c68146101b05780636352211e146101c357806370a08231146101d657806395d89b41146101f757600080fd5b8063095ea7b3116100d3578063095ea7b31461016257806323b872dd1461017757806340c10f191461018a57806342842e0e1461019d57600080fd5b806301ffc9a7146100fa57806306fdde0314610122578063081812fc14610137575b600080fd5b61010d610108366004610efa565b61024b565b60405190151581526020015b60405180910390f35b61012a61029d565b6040516101199190610f67565b61014a610145366004610f7a565b61032f565b6040516001600160a01b039091168152602001610119565b610175610170366004610faf565b610356565b005b610175610185366004610fd9565b610470565b610175610198366004610faf565b6104a1565b6101756101ab366004610fd9565b6104af565b6101756101be366004610f7a565b6104ca565b61014a6101d1366004610f7a565b6104d6565b6101e96101e4366004611015565b610536565b604051908152602001610119565b61012a6105bc565b61017561020d366004611030565b6105cb565b610175610220366004611082565b6105d6565b61012a610233366004610f7a565b61060e565b61010d61024636600461115e565b610682565b60006001600160e01b031982166380ac58cd60e01b148061027c57506001600160e01b03198216635b5e139f60e01b145b8061029757506301ffc9a760e01b6001600160e01b03198316145b92915050565b6060600080546102ac90611191565b80601f01602080910402602001604051908101604052809291908181526020018280546102d890611191565b80156103255780601f106102fa57610100808354040283529160200191610325565b820191906000526020600020905b81548152906001019060200180831161030857829003601f168201915b5050505050905090565b600061033a826106b0565b506000908152600460205260409020546001600160a01b031690565b6000610361826104d6565b9050806001600160a01b0316836001600160a01b0316036103d35760405162461bcd60e51b815260206004820152602160248201527f4552433732313a20617070726f76616c20746f2063757272656e74206f776e656044820152603960f91b60648201526084015b60405180910390fd5b336001600160a01b03821614806103ef57506103ef8133610682565b6104615760405162461bcd60e51b815260206004820152603d60248201527f4552433732313a20617070726f76652063616c6c6572206973206e6f7420746f60448201527f6b656e206f776e6572206f7220617070726f76656420666f7220616c6c00000060648201526084016103ca565b61046b838361070f565b505050565b61047a338261077d565b6104965760405162461bcd60e51b81526004016103ca906111cb565b61046b8383836107dc565b6104ab8282610982565b5050565b61046b838383604051806020016040528060008152506105d6565b6104d381610b29565b50565b6000818152600260205260408120546001600160a01b0316806102975760405162461bcd60e51b8152602060048201526018602482015277115490cdcc8c4e881a5b9d985b1a59081d1bdad95b88125160421b60448201526064016103ca565b60006001600160a01b0382166105a05760405162461bcd60e51b815260206004820152602960248201527f4552433732313a2061646472657373207a65726f206973206e6f7420612076616044820152683634b21037bbb732b960b91b60648201526084016103ca565b506001600160a01b031660009081526003602052604090205490565b6060600180546102ac90611191565b6104ab338383610be1565b6105e0338361077d565b6105fc5760405162461bcd60e51b81526004016103ca906111cb565b61060884848484610caf565b50505050565b6060610619826106b0565b600061063060408051602081019091526000815290565b90506000815111610650576040518060200160405280600081525061067b565b8061065a84610ce2565b60405160200161066b929190611218565b6040516020818303038152906040525b9392505050565b6001600160a01b03918216600090815260056020908152604080832093909416825291909152205460ff1690565b6000818152600260205260409020546001600160a01b03166104d35760405162461bcd60e51b8152602060048201526018602482015277115490cdcc8c4e881a5b9d985b1a59081d1bdad95b88125160421b60448201526064016103ca565b600081815260046020526040902080546001600160a01b0319166001600160a01b0384169081179091558190610744826104d6565b6001600160a01b03167f8c5be1e5ebec7d5bd14f71427d1e84f3dd0314c0f7b2291e5b200ac8c7c3b92560405160405180910390a45050565b600080610789836104d6565b9050806001600160a01b0316846001600160a01b031614806107b057506107b08185610682565b806107d45750836001600160a01b03166107c98461032f565b6001600160a01b0316145b949350505050565b826001600160a01b03166107ef826104d6565b6001600160a01b0316146108155760405162461bcd60e51b81526004016103ca90611247565b6001600160a01b0382166108775760405162461bcd60e51b8152602060048201526024808201527f4552433732313a207472616e7366657220746f20746865207a65726f206164646044820152637265737360e01b60648201526084016103ca565b826001600160a01b031661088a826104d6565b6001600160a01b0316146108b05760405162461bcd60e51b81526004016103ca90611247565b600081815260046020908152604080832080546001600160a01b03191690556001600160a01b0386168352600390915281208054600192906108f39084906112a2565b90915550506001600160a01b03821660009081526003602052604081208054600192906109219084906112b5565b909155505060008181526002602052604080822080546001600160a01b0319166001600160a01b0386811691821790925591518493918716917fddf252ad1be2c89b69c2b068fc378daa952ba7f163c4a11628f55a4df523b3ef91a4505050565b6001600160a01b0382166109d85760405162461bcd60e51b815260206004820181905260248201527f4552433732313a206d696e7420746f20746865207a65726f206164647265737360448201526064016103ca565b6000818152600260205260409020546001600160a01b031615610a3d5760405162461bcd60e51b815260206004820152601c60248201527f4552433732313a20746f6b656e20616c7265616479206d696e7465640000000060448201526064016103ca565b6000818152600260205260409020546001600160a01b031615610aa25760405162461bcd60e51b815260206004820152601c60248201527f4552433732313a20746f6b656e20616c7265616479206d696e7465640000000060448201526064016103ca565b6001600160a01b0382166000908152600360205260408120805460019290610acb9084906112b5565b909155505060008181526002602052604080822080546001600160a01b0319166001600160a01b03861690811790915590518392907fddf252ad1be2c89b69c2b068fc378daa952ba7f163c4a11628f55a4df523b3ef908290a45050565b6000610b34826104d6565b9050610b3f826104d6565b600083815260046020908152604080832080546001600160a01b03191690556001600160a01b0384168352600390915281208054929350600192909190610b879084906112a2565b909155505060008281526002602052604080822080546001600160a01b0319169055518391906001600160a01b038416907fddf252ad1be2c89b69c2b068fc378daa952ba7f163c4a11628f55a4df523b3ef908390a45050565b816001600160a01b0316836001600160a01b031603610c425760405162461bcd60e51b815260206004820152601960248201527f4552433732313a20617070726f766520746f2063616c6c65720000000000000060448201526064016103ca565b6001600160a01b03838116600081815260056020908152604080832094871680845294825291829020805460ff191686151590811790915591519182527f17307eab39ab6107e8899845ad3d59bd9653f200f220920489ca2b5937696c31910160405180910390a3505050565b610cba8484846107dc565b610cc684848484610de3565b6106085760405162461bcd60e51b81526004016103ca906112c8565b606081600003610d095750506040805180820190915260018152600360fc1b602082015290565b8160005b8115610d335780610d1d8161131a565b9150610d2c9050600a83611349565b9150610d0d565b60008167ffffffffffffffff811115610d4e57610d4e61106c565b6040519080825280601f01601f191660200182016040528015610d78576020820181803683370190505b5090505b84156107d457610d8d6001836112a2565b9150610d9a600a8661135d565b610da59060306112b5565b60f81b818381518110610dba57610dba611371565b60200101906001600160f81b031916908160001a905350610ddc600a86611349565b9450610d7c565b60006001600160a01b0384163b15610ed957604051630a85bd0160e11b81526001600160a01b0385169063150b7a0290610e27903390899088908890600401611387565b6020604051808303816000875af1925050508015610e62575060408051601f3d908101601f19168201909252610e5f918101906113c4565b60015b610ebf573d808015610e90576040519150601f19603f3d011682016040523d82523d6000602084013e610e95565b606091505b508051600003610eb75760405162461bcd60e51b81526004016103ca906112c8565b805181602001fd5b6001600160e01b031916630a85bd0160e11b1490506107d4565b506001949350505050565b6001600160e01b0319811681146104d357600080fd5b600060208284031215610f0c57600080fd5b813561067b81610ee4565b60005b83811015610f32578181015183820152602001610f1a565b50506000910152565b60008151808452610f53816020860160208601610f17565b601f01601f19169290920160200192915050565b60208152600061067b6020830184610f3b565b600060208284031215610f8c57600080fd5b5035919050565b80356001600160a01b0381168114610faa57600080fd5b919050565b60008060408385031215610fc257600080fd5b610fcb83610f93565b946020939093013593505050565b600080600060608486031215610fee57600080fd5b610ff784610f93565b925061100560208501610f93565b9150604084013590509250925092565b60006020828403121561102757600080fd5b61067b82610f93565b6000806040838503121561104357600080fd5b61104c83610f93565b91506020830135801515811461106157600080fd5b809150509250929050565b634e487b7160e01b600052604160045260246000fd5b6000806000806080858703121561109857600080fd5b6110a185610f93565b93506110af60208601610f93565b925060408501359150606085013567ffffffffffffffff808211156110d357600080fd5b818701915087601f8301126110e757600080fd5b8135818111156110f9576110f961106c565b604051601f8201601f19908116603f011681019083821181831017156111215761112161106c565b816040528281528a602084870101111561113a57600080fd5b82602086016020830137600060208483010152809550505050505092959194509250565b6000806040838503121561117157600080fd5b61117a83610f93565b915061118860208401610f93565b90509250929050565b600181811c908216806111a557607f821691505b6020821081036111c557634e487b7160e01b600052602260045260246000fd5b50919050565b6020808252602d908201527f4552433732313a2063616c6c6572206973206e6f7420746f6b656e206f776e6560408201526c1c881bdc88185c1c1c9bdd9959609a1b606082015260800190565b6000835161122a818460208801610f17565b83519083019061123e818360208801610f17565b01949350505050565b60208082526025908201527f4552433732313a207472616e736665722066726f6d20696e636f72726563742060408201526437bbb732b960d91b606082015260800190565b634e487b7160e01b600052601160045260246000fd5b818103818111156102975761029761128c565b808201808211156102975761029761128c565b60208082526032908201527f4552433732313a207472616e7366657220746f206e6f6e20455243373231526560408201527131b2b4bb32b91034b6b83632b6b2b73a32b960711b606082015260800190565b60006001820161132c5761132c61128c565b5060010190565b634e487b7160e01b600052601260045260246000fd5b60008261135857611358611333565b500490565b60008261136c5761136c611333565b500690565b634e487b7160e01b600052603260045260246000fd5b6001600160a01b03858116825284166020820152604081018390526080606082018190526000906113ba90830184610f3b565b9695505050505050565b6000602082840312156113d657600080fd5b815161067b81610ee456fea26469706673582212206feb0ca1b13f9d00d58ea4e388a2e3fedd25117bcd1c7769656fdce07eadc6ba64736f6c63430008140033",
    "linkReferences": {}
  },
  "methodIdentifiers": {
    "approve(address,uint256)": "095ea7b3",
    "balanceOf(address)": "70a08231",
    "burn(uint256)": "42966c68",
    "getApproved(uint256)": "081812fc",
    "isApprovedForAll(address,address)": "e985e9c5",
    "mint(address,uint256)": "40c10f19",
    "name()": "06fdde03",
    "ownerOf(uint256)": "6352211e",
    "safeTransferFrom(address,address,uint256)": "42842e0e",
    "safeTransferFrom(address,address,uint256,bytes)": "b88d4fde",
    "setApprovalForAll(address,bool)": "a22cb465",
    "supportsInterface(bytes4)": "01ffc9a7",
    "symbol()": "95d89b41",
    "tokenURI(uint256)": "c87b56dd",
    "transferFrom(address,address,uint256)": "23b872dd"
  },
  "id": 31
}