{
  "abi": [
    {
      "inputs": [],
      "name": "solve",
      "outputs": [],
      "stateMutability": "nonpayable",
      "type": "function"
    },
    {
      "inputs": [],
      "name": "solved",
      "outputs": [
        {
          "internalType": "bool",
          "name": "",
          "type": "bool"
        }
      ],
      "stateMutability": "view",
      "type": "function"
    }
  ],
  "bytecode": {
    "object": "0x60806040526000805460ff19169055348015601957600080fd5b5060a0806100286000396000f3fe6080604052348015600f57600080fd5b506004361060325760003560e01c8063799320bb146037578063890d6908146057575b600080fd5b60005460439060ff1681565b604051901515815260200160405180910390f35b60686000805460ff19166001179055565b00fea26469706673582212207557f3d6441d60b5bb48308ddaba21fcced4300b335abb59e00a9e6c1110de9c64736f6c63430008140033",
    "linkReferences": {}
  },
  "methodIdentifiers": {
    "solve()": "890d6908",
    "solved()": "799320bb"
  },
  "id": 27
}