{
  "abi": [
    {
      "constant": true,
      "inputs": [],
      "name": "name",
      "outputs": [
        {
          "name": "",
          "type": "string"
        }
      ],
      "payable": false,
      "stateMutability": "view",
      "type": "function"
    },
    {
      "constant": false,
      "inputs": [
        {
          "name": "guy",
          "type": "address"
        },
        {
          "name": "wad",
          "type": "uint256"
        }
      ],
      "name": "approve",
      "outputs": [
        {
          "name": "",
          "type": "bool"
        }
      ],
      "payable": false,
      "stateMutability": "nonpayable",
      "type": "function"
    },
    {
      "constant": true,
      "inputs": [],
      "name": "totalSupply",
      "outputs": [
        {
          "name": "",
          "type": "uint256"
        }
      ],
      "payable": false,
      "stateMutability": "view",
      "type": "function"
    },
    {
      "constant": false,
      "inputs": [
        {
          "name": "src",
          "type": "address"
        },
        {
          "name": "dst",
          "type": "address"
        },
        {
          "name": "wad",
          "type": "uint256"
        }
      ],
      "name": "transferFrom",
      "outputs": [
        {
          "name": "",
          "type": "bool"
        }
      ],
      "payable": false,
      "stateMutability": "nonpayable",
      "type": "function"
    },
    {
      "constant": false,
      "inputs": [
        {
          "name": "wad",
          "type": "uint256"
        }
      ],
      "name": "withdraw",
      "outputs": [],
      "payable": false,
      "stateMutability": "nonpayable",
      "type": "function"
    },
    {
      "constant": true,
      "inputs": [],
      "name": "decimals",
      "outputs": [
        {
          "name": "",
          "type": "uint8"
        }
      ],
      "payable": false,
      "stateMutability": "view",
      "type": "function"
    },
    {
      "constant": true,
      "inputs": [
        {
          "name": "",
          "type": "address"
        }
      ],
      "name": "balanceOf",
      "outputs": [
        {
          "name": "",
          "type": "uint256"
        }
      ],
      "payable": false,
      "stateMutability": "view",
      "type": "function"
    },
    {
      "constant": true,
      "inputs": [],
      "name": "symbol",
      "outputs": [
        {
          "name": "",
          "type": "string"
        }
      ],
      "payable": false,
      "stateMutability": "view",
      "type": "function"
    },
    {
      "constant": false,
      "inputs": [
        {
          "name": "dst",
          "type": "address"
        },
        {
          "name": "wad",
          "type": "uint256"
        }
      ],
      "name": "transfer",
      "outputs": [
        {
          "name": "",
          "type": "bool"
        }
      ],
      "payable": false,
      "stateMutability": "nonpayable",
      "type": "function"
    },
    {
      "constant": false,
      "inputs": [],
      "name": "deposit",
      "outputs": [],
      "payable": true,
      "stateMutability": "payable",
      "type": "function"
    },
    {
      "constant": true,
      "inputs": [
        {
          "name": "",
          "type": "address"
        },
        {
          "name": "",
          "type": "address"
        }
      ],
      "name": "allowance",
      "outputs": [
        {
          "name": "",
          "type": "uint256"
        }
      ],
      "payable": false,
      "stateMutability": "view",
      "type": "function"
    },
    {
      "constant": true,
      "inputs": [
        {
          "name": "src",
          "type": "address"
        }
      ],
      "name": "getAllowance",
      "outputs": [
        {
          "name": "",
          "type": "uint256"
        }
      ],
      "payable": false,
      "stateMutability": "view",
      "type": "function"
    },
    {
      "constant": true,
      "inputs": [
        {
          "name": "guy",
          "type": "address"
        }
      ],
      "name": "getBalance",
      "outputs": [
        {
          "name": "",
          "type": "uint256"
        }
      ],
      "payable": false,
      "stateMutability": "view",
      "type": "function"
    },
    {
      "payable": true,
      "stateMutability": "payable",
      "type": "fallback"
    },
    {
      "anonymous": false,
      "inputs": [
        {
          "indexed": true,
          "name": "src",
          "type": "address"
        },
        {
          "indexed": true,
          "name": "guy",
          "type": "address"
        },
        {
          "indexed": false,
          "name": "wad",
          "type": "uint256"
        }
      ],
      "name": "Approval",
      "type": "event"
    },
    {
      "anonymous": false,
      "inputs": [
        {
          "indexed": true,
          "name": "src",
          "type": "address"
        },
        {
          "indexed": true,
          "name": "dst",
          "type": "address"
        },
        {
          "indexed": false,
          "name": "wad",
          "type": "uint256"
        }
      ],
      "name": "Transfer",
      "type": "event"
    },
    {
      "anonymous": false,
      "inputs": [
        {
          "indexed": true,
          "name": "dst",
          "type": "address"
        },
        {
          "indexed": false,
          "name": "wad",
          "type": "uint256"
        }
      ],
      "name": "Deposit",
      "type": "event"
    },
    {
      "anonymous": false,
      "inputs": [
        {
          "indexed": true,
          "name": "src",
          "type": "address"
        },
        {
          "indexed": false,
          "name": "wad",
          "type": "uint256"
        }
      ],
      "name": "Withdrawal",
      "type": "event"
    }
  ],
  "bytecode": {
    "object": "0x60c0604052600b60808190527f57726170706564204d454c00000000000000000000000000000000000000000060a090815261003e91600091906100a3565b506040805180820190915260048082527f574d454c000000000000000000000000000000000000000000000000000000006020909201918252610083916001916100a3565b506002805460ff1916601217905534801561009d57600080fd5b5061013e565b828054600181600116156101000203166002900490600052602060002090601f016020900481019282601f106100e457805160ff1916838001178555610111565b82800160010185558215610111579182015b828111156101115782518255916020019190600101906100f6565b5061011d929150610121565b5090565b61013b91905b8082111561011d5760008155600101610127565b90565b6106e68061014d6000396000f3006080604052600436106100a85760003560e01c63ffffffff16806306fdde03146100b2578063095ea7b31461013c57806318160ddd1461017457806323b872dd1461019b5780632e1a7d4d146101c5578063313ce567146101dd57806370a082311461020857806395d89b4114610229578063a9059cbb1461023e578063d0e30db0146100a8578063dd62ed3e14610262578063eb5a662e14610289578063f8b2cb4f146102aa575b6100b06102cb565b005b3480156100be57600080fd5b506100c761031a565b6040805160208082528351818301528351919283929083019185019080838360005b838110156101015781810151838201526020016100e9565b50505050905090810190601f16801561012e5780820380516001836020036101000a031916815260200191505b509250505060405180910390f35b34801561014857600080fd5b50610160600160a060020a03600435166024356103a8565b604080519115158252519081900360200190f35b34801561018057600080fd5b5061018961040e565b60408051918252519081900360200190f35b3480156101a757600080fd5b50610160600160a060020a0360043581169060243516604435610413565b3480156101d157600080fd5b506100b060043561053c565b3480156101e957600080fd5b506101f26105d1565b6040805160ff9092168252519081900360200190f35b34801561021457600080fd5b50610189600160a060020a03600435166105da565b34801561023557600080fd5b506100c76105ec565b34801561024a57600080fd5b50610160600160a060020a0360043516602435610646565b34801561026e57600080fd5b50610189600160a060020a036004358116906024351661065a565b34801561029557600080fd5b50610189600160a060020a0360043516610677565b3480156102b657600080fd5b50610189600160a060020a036004351661069f565b33600081815260036020908152604091829020805434908101909155825190815291517fe1fffcc4923d04b559f4d29a8bfc6cda04eb5b0d3c460751c2402c5c5cc9109c9281900390910190a2565b6000805460408051602060026001851615610100026000190190941693909304601f810184900484028201840190925281815292918301828280156103a05780601f10610375576101008083540402835291602001916103a0565b820191906000526020600020905b81548152906001019060200180831161038357829003601f168201915b505050505081565b336000818152600460209081526040808320600160a060020a038716808552908352818420869055815186815291519394909390927f8c5be1e5ebec7d5bd14f71427d1e84f3dd0314c0f7b2291e5b200ac8c7c3b925928290030190a350600192915050565b303190565b600160a060020a03831660009081526003602052604081205482111561043857600080fd5b600160a060020a03841660009081526003602052604090205482111561045d57600080fd5b600160a060020a038416331480159061049b5750600160a060020a038416600090815260046020908152604080832033845290915290205460001914155b156104cb57600160a060020a03841660009081526004602090815260408083203384529091529020805483900390555b600160a060020a03808516600081815260036020908152604080832080548890039055938716808352918490208054870190558351868152935191937fddf252ad1be2c89b69c2b068fc378daa952ba7f163c4a11628f55a4df523b3ef929081900390910190a35060019392505050565b3360009081526003602052604090205481111561055857600080fd5b33600081815260036020526040808220805485900390555183156108fc0291849190818181858888f19350505050158015610597573d6000803e3d6000fd5b5060408051828152905133917f7fcf532c15f0a6db0bd6d0e038bea71d30d808c7d98cb3bf7268a95bf5081b65919081900360200190a250565b60025460ff1681565b60036020526000908152604090205481565b60018054604080516020600284861615610100026000190190941693909304601f810184900484028201840190925281815292918301828280156103a05780601f10610375576101008083540402835291602001916103a0565b6000610653338484610413565b9392505050565b600460209081526000928352604080842090915290825290205481565b336000908152600460209081526040808320600160a060020a03949094168352929052205490565b600160a060020a0316600090815260036020526040902054905600a165627a7a72305820de45abfaab2524a413f1a16f1c3b40e11b874d847bd309fd24827c758b54f7d10029",
    "linkReferences": {}
  },
  "methodIdentifiers": {
    "allowance(address,address)": "dd62ed3e",
    "approve(address,uint256)": "095ea7b3",
    "balanceOf(address)": "70a08231",
    "decimals()": "313ce567",
    "deposit()": "d0e30db0",
    "getAllowance(address)": "eb5a662e",
    "getBalance(address)": "f8b2cb4f",
    "name()": "06fdde03",
    "symbol()": "95d89b41",
    "totalSupply()": "18160ddd",
    "transfer(address,uint256)": "a9059cbb",
    "transferFrom(address,address,uint256)": "23b872dd",
    "withdraw(uint256)": "2e1a7d4d"
  },
  "id": 0
}